:020000040800F2
:100000008807002055020008711C000885150008AB
:100010006D1C000865040008391D00080000000080
:10002000000000000000000000000000791C000833
:100030006904000800000000751C00087D1C000811
:100040006F0200086F0200086F0200086F020008CC
:100050006F0200086F0200086F0200086F020008BC
:100060006F0200086F0200086F0200086F020008AC
:100070006F0200086F0200086F0200086F0200089C
:100080006F0200086F0200086F0200086F0200088C
:100090006F0200086F0200086F0200086F0200087C
:1000A0006F0200086F0200086F0200086F0200086C
:1000B0006F0200086F0200086F0200086F0200085C
:1000C0006F0200086F0200086F0200086F0200084C
:1000D0006F0200086F0200086F0200086F0200083C
:1000E0006F0200086F0200086F0200086F0200082C
:1000F0006F0200086F0200086F0200086F0200081C
:100100006F0200086F0200086F0200086F0200080B
:100110006F0200086F0200086F0200086F020008FB
:100120006F0200086F0200086F0200086F020008EB
:100130006F0200086F0200086F0200086F020008DB
:100140006F0200086F0200086F0200086F020008CB
:100150006F0200086F0200086F0200086F020008BB
:100160006F0200086F0200086F0200086F020008AB
:100170006F0200086F0200086F0200080000000014
:100180006F0200086F02000800F002F800F052F859
:1001900014A696E8000CB244B344DA4501D100F04D
:1001A00049F8BAE80F000FA696E83000A5EB040561
:1001B00004EB0607AAEB0704A7F101074FEA1515A0
:1001C0004FEA3414A4F10104AC4201D300F032F838
:1001D00013F0010F18BFFB1A43F0010300F001F800
:1001E000DBE718470021000020210000103A24BF5F
:1001F00078C878C1FAD8520724BF30C830C144BF8C
:1002000004680C6070470000704700000023002461
:1002100000250026103A28BF78C1FBD8520728BF16
:1002200030C148BF0B6070471FB502F041F81FBDD9
:1002300010B510BD00F0DBF81146FFF7F5FF01F037
:100240007DFD00F0F9F803B4FFF7F2FF03BC00F006
:1002500001F900000948804709480047FEE7FEE72A
:10026000FEE7FEE7FEE7FEE7FEE7FEE7FEE7FEE766
:1002700004480549054A064B70470000251D000843
:1002800089010008880100208807002088030020D9
:100290008803002053EA020C00F069802DE9F04B3E
:1002A0004FF00006002B1FBFB3FA83F503FA05F4E5
:1002B00024FA05F65E4012BF1643B2FA82F502FA3E
:1002C00005F4C5F120051EBF22FA05FC44EA0C0422
:1002D000203556EA044C4FEA144418BF641C4FF012
:1002E00000084FF00009904271EB030C39D300294C
:1002F00019BFB1FA81F701FA07F6B0FA80F700FAF0
:1003000007F6C7F120071EBF20FA07FC46EA0C06D5
:100310002037B6FBF4FCA7EB0507103F07F01F0BD7
:10032000CBF120062CFA06F60CFA0BFB44BFB346C1
:100330000026202FA4BF5E464FF0000B5BEA060CA0
:1003400008BF4FF0010B19EB0B0948EB0608ABFB9C
:10035000027C06FB02CC0BFB03CCC01B71EB0C0137
:10036000C1E70B46024641464846BDE8F08B13B54F
:10037000084318BF4FF0FF300146AFF30080BDE8DF
:100380001C40704710B5203AC0F00B80B1E81850FF
:10039000A0E81850B1E81850A0E81850203ABFF46F
:1003A000F5AF5FEA027C24BFB1E81850A0E818500E
:1003B00044BF18C918C0BDE810405FEA827C24BF62
:1003C00051F8043B40F8043B08BF7047D20728BFF0
:1003D00031F8023B48BF11F8012B28BF20F8023B3F
:1003E00048BF00F8012B704770477047704775464B
:1003F00000F02CF8AE4605006946534620F0070091
:10040000854618B020B5FFF733FFBDE820404FF018
:1004100000064FF000074FF000084FF0000BAC460D
:10042000ACE8C009ACE8C009ACE8C009ACE8C00958
:1004300021F007018D46704710B50446AFF30080E8
:100440002046BDE81040FFF7FEBE000000487047A0
:100450001000002001491820ABBEFEE72600020074
:1004600070470000FEE7000070470000002804BF4E
:1004700001207047F0B581B0044690F8250040B9DE
:10048000002084F82400204600F032F8204600F0D6
:100490002FF8022084F8250094E8035040F6F87302
:1004A0000268102922EA03020260D4E90432A56935
:1004B00042EA0E0242EA0302266A42EA0C02076896
:1004C00042EA050242EA060242EA070242EA010261
:1004D000026004BFE1698161C16841F01E01C16031
:1004E00000200121E06384F8251001B0F0BD000078
:1004F00000680021C5F20501884218BF70472DE948
:10050000F04186B0002643F630000196C4F20200A6
:100510004168002441F0010141604168C4F20204D5
:1005200001F00101019101990196016801AD41F4C9
:100530008071016001684FF0020801F4807101913F
:100540000199019601680D2741F080010160016861
:1005500001F08001019101990196016841F00101CA
:1005600001600068294600F0010001900198F02028
:10057000019004F50050CDE902860496059700F03D
:100580002FF84FF4BE40CDE9010804F5E0502946AC
:10059000CDE90366059700F023F84020CDE9010876
:1005A00020462946CDE90366059700F019F806B004
:1005B000BDE8F04170470000B0B5044600F0E6F831
:1005C000054640F20000C2F200000078611C18BF2E
:1005D000044400BF00F0DAF8401BA042FAD3B0BDDB
:1005E0002DE9F04F82B000F13E4707F1FF77860515
:1005F00046EA972741F60046C4F20206082243F66F
:10060000004EB04208BF0722C4F2010E072F38BFC8
:100610003A46002600274FF00008009209E000BF8C
:1006200008F101080237B8F1100F06F1040600F0D6
:10063000A3800D68012202FA08F415EA0409EFD03C
:10064000D1F804B003220BF0030CACF10105BA4061
:10065000012D6FEA020A0FD88268CD6802EA0A0209
:10066000BD402A4382604268A243CBF3001404FADF
:1006700008F42243426005E0BCF1030F02D14FF0C1
:10068000030C1EE0C2688C6802EA0A02BC402243E6
:10069000BCF1020FC26014D16FF0030202EA5802EB
:1006A0000244D2F820C006F01C040F230D69A340B9
:1006B0002CEA0303A5402B431362D1F804B00BF0DE
:1006C000030C02680CFA07F302EA0A021A431BF44D
:1006D000403F0260A4D0002243F644030192C4F2DA
:1006E00002031A684FF6084C42F480421A601A68F6
:1006F000CFF6FF7C02F480420192019A28F00302B7
:10070000724452F80C3006F00C050F24AC40A343A1
:10071000009C04FA05F52B4342F80C30DEF8082063
:100720004B6842EA090543F60C4CDC0258BF22EA4A
:100730000905CEF80850C4F2010CDCF800209C0238
:1007400042EA090558BF22EA0905CCF80050DEF854
:1007500004209C0342EA090558BF22EA0905CEF8A5
:100760000450DEF80020DB0342EA090558BF22EA04
:100770000905CEF8005053E702B0BDE8F08F000045
:10078000002A08BF090481617047000040F2801010
:10079000C2F2000000687047002804BF01207047C3
:1007A000F0B581B0044690F83D0028B9002084F8E7
:1007B0003C00204600F01EFB242084F83D00206809
:1007C000016821F001010160016841F4004101600C
:1007D000016821F40041016000F09CFC636848F26C
:1007E000A16CC0F2010C40F60011C0F23D0163455E
:1007F0003CBF48F28041C0F21E01884202D2012073
:1008000001B0F0BD4DF68361C4F21B31A0FB0112B3
:100810002168970CD1F804E04FF496762EF03F054E
:1008200045EA92454D60774348F638160D6AC0F2A6
:100830004106A7FB067625F03F07634538BF960CB7
:10084000721C3A430A62CA6948F2A0664CF6FF7706
:10085000C0F20106B34222EA07020BD801385B005E
:10086000B0FBF3F001306FF31F30042898BF042071
:100870001BE000BFA768013857B119277B43B0FBC5
:10088000F3F001306FF31F3070B100F5804007E0E6
:1008900003EB4303B0FBF3F001306FF31F3018B1EB
:1008A00000F5004001E000BF01201043C861086866
:1008B000D4E9072320F0C00010431843086088687B
:1008C00048F2FF3204F10C0790438CCF18431043D9
:1008D000A6698860C86820F0FF0038433043C860CC
:1008E000086840F00100086000202021206484F89E
:1008F0003D10206384F83E0001B0F0BD2DE9F043C7
:1009000083B01F46164689460446FFF73FFF94F81A
:100910003D10202924D10546206800BF8169890740
:100920001AD5FFF733FF411B20681A29F6D38169D6
:100930008907F3D500202021206384F83D1084F836
:100940003E00216C41F02001216484F83C0002202B
:1009500003B0BDE8F08300BF94F83C10012903D137
:10096000022003B0BDE8F083012184F83C10016847
:10097000C90703D1016841F001010160016840F23B
:10098000040821F400610160222184F83D10102147
:1009900084F83E100021216466626785618DC0F293
:1009A00001082185A8F500310439E162E16A026895
:1009B0000A9F42F4806211F5803F026018BF01294E
:1009C00042D1016841F48071016020464FF001116D
:1009D00000223B46009500F035FE58B120680068C3
:1009E000C00544BF4FF400702064012003B0BDE88F
:1009F000F08300BF2069B0F5804F2BD149F0010092
:100A0000C0B221683A460861A8F1020120462B468F
:100A100000F0FEFE0028E8D1208D002850D00228EA
:100A200066D001286ED121680A6822F480620A60CB
:100A3000002202924A6902928A690292029A0A6824
:100A400042F400720A6078E00829BAD0216B1129BB
:100A5000B7D0BAE7062000EAD916206806F1F001FF
:100A6000016108F1040120463A462B4600F0D0FE11
:100A70000028BAD120685FFA89F10161A8F102016A
:100A800020463A462B4600F0C3FE0028ADD1002098
:100A900002902068002241693B46029181690291DF
:100AA0000299016841F48071016020464FF0011104
:100AB000009500F0C7FD002890D146F0F100A0E7B6
:100AC0000020029020684169029181690291029997
:100AD000016841F400710160202084F83D0000208D
:100AE00084F83E0084F83C0003B0BDE8F08300BF0A
:100AF00021680A6822F480620A600A6842F400628F
:100B000004E000BF21680A6842F480620A600022A3
:100B100002924A6902928969029102990DE000BF2E
:100B200010690870606A218D01306062481E20855E
:100B3000618D013961850104CED080B203280FD8C0
:100B400002284AD001282DD1204639462A4600F0F5
:100B5000CBFE00287FF449AF2068616A0069E0E7B6
:100B6000204639462A4600F0BFFE00287FF43DAFFC
:100B70002068616A00690870606A2268411C208DE3
:100B8000616201382085638D013B638553695B0792
:100B9000D1D580B20328C3D1106820F480601060E2
:100BA000BEE700BF2046414600223B46009500F0CC
:100BB00049FD00287FF419AF2068616A026822F4B9
:100BC0008062026000690870606A218D0130606295
:100BD000481E2085608D01386085204641460022F0
:100BE0003B46009500F02EFD00287FF4FEAE206805
:100BF000616A026842F40072026000690870606A0B
:100C00002268411C6162218D01392185618D013984
:100C100061851169417085E72DE9F04383B01E4677
:100C2000174689460446FFF7B1FD94F83D10202988
:100C300024D10546206800BF816989071AD5FFF7CE
:100C4000A5FD411B20681A29F6D381698907F3D5D0
:100C500000202021206384F83D1084F83E00216CA0
:100C600041F02001216484F83C00022003B0BDE87B
:100C7000F08300BF94F83C10012903D1022003B097
:100C8000BDE8F083012184F83C100168C90703D155
:100C9000016841F001010160016840F2020821F49D
:100CA00000610160212184F83D10102184F83E107C
:100CB0000021216467626685618DC0F2010821858B
:100CC000A8F10211E162E16A0A9E11F5803F18BFA6
:100CD00001291DD1016841F48071016020464FF067
:100CE000011100223346009500F0ACFC50B12068A1
:100CF0000068C00544BF4FF400702064012003B0B9
:100D0000BDE8F0832069B0F5804F07D1FE2015E0E3
:100D10000829DFD0216B1229DCD0DFE7062000EAAA
:100D2000D9102168F030086108F1060120463246EA
:100D30002B4600F06DFD0028E0D1FF20216800EA7D
:100D4000090008612046414632462B4600F060FD0E
:100D50000028D3D100200290206841690291806967
:100D60000290029806E000BF204631462A4600F075
:100D70000BFC18BB208D68B3204631462A4600F094
:100D8000FBFDD8B9606A2168024612F8013B0B618D
:100D90006262628D013A6285228D531E23854F69FE
:100DA0007F07E1D51B04DFD0437802300B6160621E
:100DB000608D01386085901E2085D5E7206C042861
:100DC0009CD12068016841F400710160012003B0EA
:100DD000BDE8F0832068016841F4007101602020C3
:100DE00084F83D00002084F83E0084F83C0003B005
:100DF000BDE8F083016845F20040C4F20000814282
:100E000018BF7047B0B586B0002443F63005019492
:100E1000C4F20205296800F5D83041F002012960CA
:100E2000296801F00201019101994FF410710191BB
:100E30001221CDE902140421059101A90494FFF7C0
:100E4000CFFB0094286940F400102861286900F461
:100E500000100090009806B0BDE8B0407047000058
:100E600040F2000040F28011C2F20000C2F2000124
:100E700000780A68104408607047000080B543F6A7
:100E80000040C4F20200016841F400710160016891
:100E900041F480610160016841F4807101600320C8
:100EA00000F076F8002000F005F800F027F80020A8
:100EB00080BD000070B540F20006C2F2000640F2AC
:100EC00008013278C2F200014FF47A730968B3FB6B
:100ED000F2F20446B1FBF2F1084600F03DFB0F2CA4
:100EE0004FF0010508D838B94FF0FF3021460022F5
:100EF000002500F021F87460284670BD82B0002003
:100F000043F640010190C4F202014A6842F4804273
:100F10004A604A6802F480420192019A009008688F
:100F200040F080500860086800F080500090009801
:100F3000072002B000F02CB810B54EF60C5CCEF2D3
:100F4000000CDCF80030C3F3022E8EF00704042CF2
:100F500028BF0424BEF103034FF0FF3E0EFA04F451
:100F600038BF0023A14399400EFA03F39A4311437B
:100F700000F00F0200F160430901043A03F56443F5
:100F80006244002848BF02F10C03197010BD000034
:100F90004EF60C51CEF200010A684FF6FF031A40DC
:100FA00060F30A2242F0806040F0FD7008607047F4
:100FB000002804BF012070472DE9F04143F60808DE
:100FC000C4F202080446D8F8F8030D4600F0070002
:100FD000884207D288F8F853D8F8F80300F00700E1
:100FE000A84277D12068810717D5410705D5D8F8E1
:100FF000001041F4E051C8F80010010705D5D8F8F9
:10100000001041F46041C8F80010D8F80010A26840
:1010100021F0F0011143C8F80010C00740D1D8F802
:10102000F80300F00700A84207D988F8F853D8F869
:10103000F80300F00700A8424CD12068410707D50B
:10104000D8F80010E26821F4E0511143C8F800100C
:10105000000708D5D8F80000216920F4604040EA74
:10106000C100C8F8000000F069F8D8F8001042F29A
:10107000CA22C1F30311C0F60002515C40F208021B
:1010800020FA01F140F20400C2F200000068C2F24E
:1010900000021160FFF70EFF0020BDE8F08100BFE5
:1010A0006068811E022907D258F8081C89015CBFBC
:1010B0000120BDE8F08111E0012807D158F8081C93
:1010C00089035CBF0120BDE8F08107E058F8081CE7
:1010D000890703D40120BDE8F08100BFD8F80010D3
:1010E00021F003010843C8F80000FFF74FFB064654
:1010F00041F28837D8F80000616800F00C00B0EBCE
:10110000810F8CD0FFF742FB801BB842F2D903203D
:10111000BDE8F08140F2080043F60801C2F2000089
:10112000C4F202010068096842F2DA22C1F38221A6
:10113000C0F60002515CC8407047000010B543F68D
:101140000404C4F20204606800F00C0008280BD00C
:10115000042819BF42F20040C0F2F40047F64000F4
:10116000C0F27D1010BD00BF2068216823684902CD
:1011700047F64001C0F27D1100F03F02C3F3881032
:101180005CBF42F20041C0F2F401A1FB0001002368
:10119000FFF780F821680222C1F3014102EB41010F
:1011A000B0FBF1F010BD0000002804BF0120704723
:1011B0002DE9F04182B00446007843F60006C007EE
:1011C000C4F202060CD0B06800F00C00042840F015
:1011D00081803068800303D56068002800F06A8150
:1011E000207880071BD5B06810F00C0F09D0B068CC
:1011F00000F00C00082840F087807068400200F181
:1012000083803068800703D5E068012840F0528170
:101210003068216920F0F80040EAC1003060207891
:10122000000713D4207840072AD4A569002D00F0C8
:101230003C81B06800F00C00082840F0A180012D2E
:1012400040F01081012002B0BDE8F0816069002803
:1012500040F20000C4F2472000F07E800121C0F877
:10126000801EFFF793FA0546706F8007DAD4FFF708
:101270008DFA401B0228F7D9032002B0BDE8F081A7
:10128000306C5FEAC0080AD400200190306C40F056
:1012900080503064306C00F080500190019847F22B
:1012A0000007C4F200073868C00547D4386840F426
:1012B00080703860FFF76AFA054600BF3868C005DD
:1012C0003CD4FFF763FA401B0228F7D9032002B091
:1012D000BDE8F081B06800F00C00082803D1706808
:1012E00040023FF576AF6068B0F5803F07D0B0F5BB
:1012F000A02F40F09B80306840F480203060306840
:1013000040F4803030609BE0E06800285CD0002032
:10131000C4F2472001210160FFF738FA054600BFFB
:10132000306880073FF574AFFFF730FA401B0228A2
:10133000F6D9032002B0BDE8F08100BFA068012803
:1013400005D0052854D1306F40F004003067306F6D
:1013500040F00100306755E00021C0F8801EFFF723
:1013600015FA0546706F80077FF55CAFFFF70EFA40
:10137000401B0228F6D9032002B0BDE8F08100BF6F
:101380000027C4F2472700203866FFF7FFF9022D37
:1013900005460DD13068800140F19080FFF7F6F9E5
:1013A000401B02284FF00300F4D902B0BDE8F081E1
:1013B0003068800179D5FFF7E9F9401B02284FF02A
:1013C0000300F5D9F1E700BF0020C4F24720002157
:1013D0000160FFF7DBF90546306880077FF51FAF36
:1013E000FFF7D4F9401B02284FF00300F4D9DCE7E3
:1013F000316F002821F001013167316F21F00401C4
:1014000031677DD0FFF7C2F9054641F2883700BF4A
:10141000306F800700F18680FFF7B8F9401BB842B3
:10142000F6D9032002B0BDE8F08100BF3168002882
:1014300021F480313160316821F4802131607BD02A
:10144000FFF7A4F9054600BF306880033FF5C8AE3A
:10145000FFF79CF9401B6428F6D9032002B0BDE8D1
:10146000F08100BF7068E16900F480028A4221D1F6
:10147000216A00F03F028A421CD147F6C071626ABD
:101480000140B1EB821F15D1A16A4FF6FF73C9036A
:10149000994300F44032A1F580318A420AD1E16AD1
:1014A00000F07060B0EB016F04D1002002B0BDE825
:1014B000F08100BF012002B0BDE8F08104F11C05FD
:1014C0002FCD084340EA8210D9034FF6FF729143B3
:1014D000A1F5803140EA056008437060012038665C
:1014E000FFF754F9044600BF30688001DDD4FFF7F0
:1014F0004DF9001B02284FF00300F5D955E700BF56
:10150000FFF744F9054641F2883700BF306F800786
:1015100008D5FFF73BF9401BB8424FF00300F5D95F
:1015200043E700BFB8F1000F3FF57FAE306C20F00D
:101530008050306479E600BFFFF728F9054600BF08
:10154000306880037FF54CAEFFF720F9401B64281C
:101550004FF00300F4D928E7411E0020B0EB116FD3
:101560001CBF012070474EF21002CEF20002516003
:101570004EF62351CEF20001F0230B70072190604C
:1015800011607047FEE7000070B50368044653F829
:10159000140F400711D40E46481C29D086BB00BF4B
:1015A0001868400527D4FFF7F1F8236853F8140FA3
:1015B000400737D518684007F2D5002070BD00BF3E
:1015C00018684007F9D41868400514D41868400713
:1015D000F3D4186840050ED418684007EDD4186895
:1015E000400508D4186840074FF0000048BF70BDA0
:1015F00018684005E4D56FF480601860042012E09C
:10160000154603E053F8140F4007D6D41868400578
:10161000F1D4FFF7BBF8401B2368B042F2D95869F8
:101620004007EFD4202000212022216384F83D20B0
:1016300084F83E10226C10432064012084F83C1092
:1016400070BD00002DE9F041054600681E461446B5
:1016500001F47F0201338FB242D0DDF81880B2F579
:10166000803F40F0878040693840C01BB0FA80F06E
:101670004009A04240F0C8804EB924E0406938409B
:10168000C01BB0FA80F04009A04240F0BD80FFF7D7
:101690007DF8A0EB08012868B142EFD941693940D3
:1016A000C91BB1FA81F14909A142E7D19BE000BF12
:1016B00040693840C01BB0FA80F04009A0424FF0AA
:1016C000000040F0A280FFF761F8286841693940C6
:1016D000C91BB1FA81F14909A142E9D183E000BFF8
:1016E000B2F5803F24D100BF41693940C91BB1FA2E
:1016F00081F14909A14240F0878041693940C91B05
:10170000B1FA81F14909A14240F07E804169394036
:10171000C91BB1FA81F14909A14275D1416939402A
:10172000C91BB1FA81F14909A142DDD06CE000BFCB
:1017300081693940C91BB1FA81F14909A14263D1DC
:1017400081693940C91BB1FA81F14909A1425BD1D4
:1017500081693940C91BB1FA81F14909A14253D1CC
:1017600081693940C91BB1FA81F14909A142DFD031
:101770004AE000BF80693840C01BB0FA80F04009E1
:10178000A04241D146B923E080693840C01BB0FA7D
:1017900080F04009A04237D1FEF7F8FFA0EB080126
:1017A0002868B142F0D981693940C91BB1FA81F189
:1017B0004909A142E8D116E080693840C01BB0FA5F
:1017C00080F04009A0424FF0000018BFBDE8F08152
:1017D000FEF7DCFF286881693940C91BB1FA81F145
:1017E0004909A142E8D100202021286385F83D1055
:1017F00085F83E00296C41F02001296485F83C0001
:101800000120BDE8F08100BF0020BDE8F0810000AC
:10181000F0B581B0044600681D4643698FB203EA03
:101820000701B94202D1002001B0F0BD416916465E
:1018300001323FD049053FD4CEB100BFFEF7A6FF2D
:10184000411B2068B14203D941693940B94215D1E1
:1018500041693940B942E6D041694905EED52BE0EE
:1018600041693940B942DED04169490524D4FEF7C7
:101870008DFF206841693940B942F1D0202023E032
:1018800041693940B942CED04169490514D4416912
:101890003940B942C7D0416949050DD44169394041
:1018A000B942C0D04169490506D441693940B942BD
:1018B000B9D041694905E3D5016841F4007101607F
:1018C0006FF480614161042000212022216384F8AB
:1018D0003D2084F83E10226C1043206484F83C10B4
:1018E000012001B0F0BD000070B504460068154647
:1018F00050F8143F5A063DD40E4629B926E000BFE1
:1019000050F8141F490635D40168C90621D4FEF7E2
:101910003DFF411B2068B142F2D941694906EFD42D
:1019200000202021206384F83D1084F83E00206CC4
:1019300040F0200018E000BFFEF728FF206850F8B4
:10194000141F4906ECD50168490613D40168C9067D
:10195000F2D56FF01001016000202021206384F88F
:101960003D1084F83E00206C2064002084F83C0088
:10197000012070BD002070BD70B50368044653F8A7
:10198000140F000611D40E46481C29D086BB00BF98
:101990001868400527D4FEF7F9FE236853F8140FA2
:1019A000000637D518680006F2D5002070BD00BFCC
:1019B00018680006F9D41868400514D418680006A1
:1019C000F3D4186840050ED418680006EDD41868E2
:1019D000400508D4186800064FF0000048BF70BDED
:1019E00018684005E4D56FF480601860042012E0A8
:1019F000154603E053F8140F0006D6D418684005C6
:101A0000F1D4FEF7C3FE401B2368B042F2D95869F7
:101A10000006EFD4202000212022216384F83D20FD
:101A200084F83E10226C10432064012084F83C109E
:101A300070BD00002DE9F04184B040F2BC08C2F254
:101A40000008044648F26B0008F11C05ADF80400DC
:101A5000642701AA2846D02102230097FFF7DCF86B
:101A60006420FEF7A9FD2078217900F0070040EA04
:101A700081106B218DF806108DF807000DF106021C
:101A80002846D02102230097FFF7C6F86420FEF70E
:101A900093FDE0781A2100F007008DF808108DF80A
:101AA000090002AA2846D02102230097FFF7B4F8C4
:101AB0006078182606EAC0001B218DF80A108DF800
:101AC0000B000DF10A022846D02102230097FFF7F0
:101AD000A3F8A0781C2106EAC0008DF80C108DF840
:101AE0000D0003AA2846D02102230097FFF794F89F
:101AF00040F21940ADF80E000DF10E022846D0213B
:101B000002230097FFF788F8A078032806D96078A9
:101B100003280BD904B0BDE8F08100BF07A151F83C
:101B20002000C8F8080060780328F3D807A151F80E
:101B30002000C8F80C0004B0BDE8F08100007A3D38
:101B40000000FA3D00007A3E0000FA3E0000FA3B39
:101B500000007A3C0000FA3C00007A3D2DE9F04399
:101B600085B040F2BC08054604A8C2F20008461C35
:101B70003A2008F11C048DF80A004FF00A090DF113
:101B80000A022046D0210123CDF80090FFF744F847
:101B900064272046D021324601230097FEF7AEFE8F
:101BA0009DF81100002846D03B208DF8040001AAC2
:101BB0002046D0210123CDF80090FFF72DF80DF13C
:101BC0000A022046D02106230097FEF797FEBDF8B3
:101BD0000A00BDF80C1000BA000C288008BABDF845
:101BE0000E10000C688008BA000CA88043208DF805
:101BF00012000DF112022046D0210123CDF80090F1
:101C0000FFF70AF801AA2046D02106230097FEF725
:101C100075FEBDF80400BDF8061000BA000CA8F867
:101C2000000008BABDF80810000CA8F8020008BAB5
:101C3000000CA8F8040005B0BDE8F08340F2BC0138
:101C4000C2F200010A8802804A8842808988818025
:101C50007047000080B5014640F2BC00C2F20000AF
:101C60001C305422FEF78EFB80BD0000FEE7000012
:101C7000FEE700007047000070470000FFF7F0B873
:101C8000B0B592B0002443F640000B94CDE909446E
:101C9000CDE907440594CDE90344CDE9014400941E
:101CA000C4F202000168022541F080510160006821
:101CB00000F080500090009847F200000094C4F2B9
:101CC0000000016841F480410160006800F4804038
:101CD000009000980120099010200A900E904FF477
:101CE000A8700F90042010900720119006A8069568
:101CF000CDE90C54FFF758FA10B172B6FEE700BFF9
:101D00000F20CDE901054FF48050CDE9040401A86E
:101D100002210394FFF74CF910B172B6FEE700BF41
:101D200012B0B0BD4EF68850CEF20000016841F40A
:101D30007001016070470000FEE700008CB00024D5
:101D4000C4F20204FFF79AF8FFF79AFF4FF0000978
:101D500043F63000CDF81C90C4F202000168002266
:101D600041F010010160016801F01001079107992D
:101D7000CDF81C90016841F002010160016801F09A
:101D8000020107910799CDF81C90016841F04001CC
:101D90000160016801F0400107910799CDF81C909E
:101DA000016841F008010160016801F00801079134
:101DB0000799CDF81C90016841F0040101600168A9
:101DC00001F0040107910799CDF81C90016841F0DA
:101DD00001010160016801F0010107910799CDF847
:101DE0001C90016841F480710160016801F4807108
:101DF00007910799CDF81C90016841F080010160BE
:101E0000016801F0800107910799CDF81C900168E5
:101E100041F02001016000684FF48A5100F0200079
:101E20000790079804F5C0500590FEF7A9FC04F54B
:101E300000504FF4007100220090FEF7A1FC04F561
:101E4000E05048F2200100220290FEF799FC04F5D0
:101E50000060802100220490FEF792FC04F5A0505F
:101E6000802100220690FEF78BFC4FF69B700790B6
:101E700003200A900C2007AE4FF0020A0B9004F5E5
:101E800080503146CDE908A90327FEF7A9FB4FF49E
:101E90008070CDE9070A0B2004F5806B0B90584643
:101EA0003146CDE909994FF00B082546FEF798FB1E
:101EB00043F62340CDE9070A0A200B9058463146E5
:101EC000CDE909970327CDF80CB0FEF789FB059CF7
:101ED0004FF4D040CDE9070A20463146CDE90999B3
:101EE000CDF82C80FEF77CFB4FF6FB70CDE9070A9E
:101EF000CDE909970C2705F5406031464FF00308FE
:101F00000B970190FEF76CFB049D4FF49850CDE9C0
:101F1000070A28463146CDE909980B97FEF760FB82
:101F20008020CDE9070A58463146CDE909984FF09F
:101F300003080B970C27FEF753FB4FF40040079064
:101F40004FF490100890204631464FF4901BCDF886
:101F50002490FEF745FB4FF48A5007900120CDE90D
:101F6000080920463146CDF82890FEF739FB40F2AB
:101F70003F60CDE9070A20463146CDE909980B9725
:101F8000FEF72EFB4FF44060CDE9070A07200B90C7
:101F900028463146CDE90999FEF722FB4FF4E0507F
:101FA000CDE9070A0A200B900020C4F20200314656
:101FB000CDE90999FEF714FB0920009FCDE9070A36
:101FC00005200B9038463146CDE90999FEF708FB0C
:101FD00004200790384631460425CDE908B9FEF7BC
:101FE000FFFA4FF400700790012438463146CDE9DE
:101FF0000849CDF82890FEF7F3FA01984FF003084E
:102000004FF00C0B3146CDE9075ACDF82490CDF8AE
:102010002880CDF82CB0FEF7E3FA029D48F22000AC
:1020200007A981E8110228463146CDF82890FEF72D
:10203000D7FA4FF23F00CDE9070A06983146CDE9BD
:1020400009980324CDF82CB0FEF7CAFA4FF480604B
:10205000CDE9070A4FF00B0838463146CDE909991A
:10206000CDF82C80FEF7BCFA4FF40060CDE9070AEA
:102070000A200B9038463146CDE90994FEF7B0FAB4
:102080004FF40050CDE90709012009902846314658
:10209000FEF7A6FA00244FF40070C4F20204CDE962
:1020A000070920463146CDF82490FEF799FACC2056
:1020B000CDE9070A28463146CDE90999CDF82C80AB
:1020C000FEF78EFA4FF48070CDE9070A20463146BC
:1020D000CDE90999CDF82C90FEF782FA049C80276F
:1020E0004FF0010B204631460797CDE908B9CDF8EE
:1020F0002890FEF775FA1020CDE9070A0A204FF064
:1021000003080B9028463146CDF82490CDF828805E
:10211000FEF766FA08200B9005983146079780274E
:10212000CDE908A9CDF82890FEF75AFACDE9077B4A
:10213000069F314638460125CDE90999FEF750FA48
:102140004020CDE9070938463146CDF82490FEF706
:1021500047FA4FF4C06007A981E8010338463146C9
:10216000FEF73EFA0A200B9020463146CDE9075A89
:10217000CDE909984FF0030BFEF732FA3E20CDE986
:10218000070A0B2520463146CDE909990B95FEF744
:1021900027FA039C0420CDE9070920463146CDF8F3
:1021A0002490FEF71DFA0B9500258620C4F2020547
:1021B000CDE9070A28463146CDE90999FEF710FA1C
:1021C0004FF0100828463146CDE9078BCDF8249012
:1021D000FEF706FA2820CDE9070A0A200B902846C8
:1021E0003146CDE9099BAA46FEF7FAF94FF40060A3
:1021F00007904FF4901538463146CDE90859FEF75F
:10220000EFF94FF4804720463146CDE90775CDF808
:102210002490FEF7E5F940F27004C2F200040021B8
:10222000C5F20501204640F80C1FC0E90189C0E94C
:102230000599C0E90799FEF719F918B172B600BF00
:10224000FEE700BF40F22C10AAF5D631C2F2000022
:1022500048F2A062C0F2010280E80602C0E90397DA
:10226000C0E90599C0E90799FEF796FA10B172B670
:10227000FEE700BF40F22C10C2F20000FFF7EAFCBC
:1022800000208DF81C0040F20110C0F20100CDF8D2
:102290001D0007A8FFF7CEFBA51D00BF2046FFF7D6
:1022A0005DFC2846FFF7CAFC0A20FEF785F9F5E732
:1022B000F1EE100A4FF6FF71C0F2C03120EA0100C2
:1022C00040F04070E1EE100A70470000000000008E
:1022D00000000102030406070809000000000102D3
:1022E0000304000008230008000000201000000084
:1022F000EC010008182300081000002078070000F7
:102300000C020008000000000100000010000000A6
:082310000024F40000000000AD
:040000050800018965
:00000001FF
