:020000040800F2
:100000003008002055020008E920000855190008B2
:10001000E5200008650400084123000800000000F6
:10002000000000000000000000000000F1200008B7
:100030006904000800000000ED200008F520000819
:100040006F0200086F0200086F0200086F020008CC
:100050006F0200086F0200086F0200086F020008BC
:100060006F0200086F0200086F0200086F020008AC
:100070006F0200086F0200086F0200086F0200089C
:100080006F0200086F0200086F0200086F0200088C
:100090006F0200086F0200086F0200086F0200087C
:1000A0006F0200086F0200086F0200086F0200086C
:1000B0006F0200086F0200086F0200086F0200085C
:1000C0006F0200086F0200086F0200086F0200084C
:1000D0006F0200086F0200086F0200086F0200083C
:1000E0006F0200086F0200086F0200086F0200082C
:1000F0006F0200086F0200086F0200086F0200081C
:100100006F0200086F0200086F0200086F0200080B
:100110006F0200086F020008B1210008BD2100082D
:100120006F0200086F0200086F0200086F020008EB
:100130006F0200086F0200086F0200086F020008DB
:100140006F0200086F0200086F0200086F020008CB
:100150006F0200086F0200086F0200086F020008BB
:100160006F0200086F0200086F0200086F020008AB
:100170006F0200086F0200086F0200080000000014
:100180006F0200086F02000800F002F800F052F859
:1001900014A696E8000CB244B344DA4501D100F04D
:1001A00049F8BAE80F000FA696E83000A5EB040561
:1001B00004EB0607AAEB0704A7F101074FEA1515A0
:1001C0004FEA3414A4F10104AC4201D300F032F838
:1001D00013F0010F18BFFB1A43F0010300F001F800
:1001E000DBE7184780280000A0280000103A24BF51
:1001F00078C878C1FAD8520724BF30C830C144BF8C
:1002000004680C6070470000704700000023002461
:1002100000250026103A28BF78C1FBD8520728BF16
:1002200030C148BF0B6070471FB502F002FC1FBD14
:1002300010B510BD00F0DBF81146FFF7F5FF02F036
:1002400081F800F0F9F803B4FFF7F2FF03BC00F007
:1002500001F900000948804709480047FEE7FEE72A
:10026000FEE7FEE7FEE7FEE7FEE7FEE7FEE7FEE766
:1002700004480549054A064B704700009D210008C7
:1002800089010008300200203008002030040020DE
:100290003004002053EA020C00F069802DE9F04B95
:1002A0004FF00006002B1FBFB3FA83F503FA05F4E5
:1002B00024FA05F65E4012BF1643B2FA82F502FA3E
:1002C00005F4C5F120051EBF22FA05FC44EA0C0422
:1002D000203556EA044C4FEA144418BF641C4FF012
:1002E00000084FF00009904271EB030C39D300294C
:1002F00019BFB1FA81F701FA07F6B0FA80F700FAF0
:1003000007F6C7F120071EBF20FA07FC46EA0C06D5
:100310002037B6FBF4FCA7EB0507103F07F01F0BD7
:10032000CBF120062CFA06F60CFA0BFB44BFB346C1
:100330000026202FA4BF5E464FF0000B5BEA060CA0
:1003400008BF4FF0010B19EB0B0948EB0608ABFB9C
:10035000027C06FB02CC0BFB03CCC01B71EB0C0137
:10036000C1E70B46024641464846BDE8F08B13B54F
:10037000084318BF4FF0FF300146AFF30080BDE8DF
:100380001C40704710B5203AC0F00B80B1E81850FF
:10039000A0E81850B1E81850A0E81850203ABFF46F
:1003A000F5AF5FEA027C24BFB1E81850A0E818500E
:1003B00044BF18C918C0BDE810405FEA827C24BF62
:1003C00051F8043B40F8043B08BF7047D20728BFF0
:1003D00031F8023B48BF11F8012B28BF20F8023B3F
:1003E00048BF00F8012B704770477047704775464B
:1003F00000F02CF8AE4605006946534620F0070091
:10040000854618B020B5FFF733FFBDE820404FF018
:1004100000064FF000074FF000084FF0000BAC460D
:10042000ACE8C009ACE8C009ACE8C009ACE8C00958
:1004300021F007018D46704710B50446AFF30080E8
:100440002046BDE81040FFF7FEBE000000487047A0
:100450001000002001491820ABBEFEE72600020074
:1004600070470000FEE7000070470000002804BF4E
:1004700001207047F0B581B0044690F8250040B9DE
:10048000002084F82400204600F032F8204600F0D6
:100490002FF8022084F8250094E8035040F6F87302
:1004A0000268102922EA03020260D4E90432A56935
:1004B00042EA0E0242EA0302266A42EA0C02076896
:1004C00042EA050242EA060242EA070242EA010261
:1004D000026004BFE1698161C16841F01E01C16031
:1004E00000200121E06384F8251001B0F0BD000078
:1004F00000680021C5F20501884218BF70472DE948
:10050000F04186B0002643F630000196C4F20200A6
:100510004168002441F0010141604168C4F20204D5
:1005200001F00101019101990196016801AD41F4C9
:100530008071016001684FF0020801F4807101913F
:100540000199019601680D2741F080010160016861
:1005500001F08001019101990196016841F00101CA
:1005600001600068294600F0010001900198F02028
:10057000019004F50050CDE902860496059700F03D
:100580002FF84FF4BE40CDE9010804F5E0502946AC
:10059000CDE90366059700F023F84020CDE9010876
:1005A00020462946CDE90366059700F019F806B004
:1005B000BDE8F04170470000B0B5044600F0E6F831
:1005C000054640F20000C2F200000078611C18BF2E
:1005D000044400BF00F0DAF8401BA042FAD3B0BDDB
:1005E0002DE9F04F82B000F13E4707F1FF77860515
:1005F00046EA972741F60046C4F20206082243F66F
:10060000004EB04208BF0722C4F2010E072F38BFC8
:100610003A46002600274FF00008009209E000BF8C
:1006200008F101080237B8F1100F06F1040600F0D6
:10063000A3800D68012202FA08F415EA0409EFD03C
:10064000D1F804B003220BF0030CACF10105BA4061
:10065000012D6FEA020A0FD88268CD6802EA0A0209
:10066000BD402A4382604268A243CBF3001404FADF
:1006700008F42243426005E0BCF1030F02D14FF0C1
:10068000030C1EE0C2688C6802EA0A02BC402243E6
:10069000BCF1020FC26014D16FF0030202EA5802EB
:1006A0000244D2F820C006F01C040F230D69A340B9
:1006B0002CEA0303A5402B431362D1F804B00BF0DE
:1006C000030C02680CFA07F302EA0A021A431BF44D
:1006D000403F0260A4D0002243F644030192C4F2DA
:1006E00002031A684FF6084C42F480421A601A68F6
:1006F000CFF6FF7C02F480420192019A28F00302B7
:10070000724452F80C3006F00C050F24AC40A343A1
:10071000009C04FA05F52B4342F80C30DEF8082063
:100720004B6842EA090543F60C4CDC0258BF22EA4A
:100730000905CEF80850C4F2010CDCF800209C0238
:1007400042EA090558BF22EA0905CCF80050DEF854
:1007500004209C0342EA090558BF22EA0905CEF8A5
:100760000450DEF80020DB0342EA090558BF22EA04
:100770000905CEF8005053E702B0BDE8F08F000045
:10078000002A08BF090481617047000040F2282058
:10079000C2F2000000687047002804BF01207047C3
:1007A000F0B581B0044690F83D0028B9002084F8E7
:1007B0003C00204600F01EFB242084F83D00206809
:1007C000016821F001010160016841F4004101600C
:1007D000016821F40041016000F0AEFC636848F25A
:1007E000A16CC0F2010C40F60011C0F23D0163455E
:1007F0003CBF48F28041C0F21E01884202D2012073
:1008000001B0F0BD4DF68361C4F21B31A0FB0112B3
:100810002168970CD1F804E04FF496762EF03F054E
:1008200045EA92454D60774348F638160D6AC0F2A6
:100830004106A7FB067625F03F07634538BF960CB7
:10084000721C3A430A62CA6948F2A0664CF6FF7706
:10085000C0F20106B34222EA07020BD801385B005E
:10086000B0FBF3F001306FF31F30042898BF042071
:100870001BE000BFA768013857B119277B43B0FBC5
:10088000F3F001306FF31F3070B100F5804007E0E6
:1008900003EB4303B0FBF3F001306FF31F3018B1EB
:1008A00000F5004001E000BF01201043C861086866
:1008B000D4E9072320F0C00010431843086088687B
:1008C00048F2FF3204F10C0790438CCF18431043D9
:1008D000A6698860C86820F0FF0038433043C860CC
:1008E000086840F00100086000202021206484F89E
:1008F0003D10206384F83E0001B0F0BD2DE9F043C7
:1009000083B01F46164689460446FFF73FFF94F81A
:100910003D10202924D10546206800BF8169890740
:100920001AD5FFF733FF411B20681A29F6D38169D6
:100930008907F3D500202021206384F83D1084F836
:100940003E00216C41F02001216484F83C0002202B
:1009500003B0BDE8F08300BF94F83C10012903D137
:10096000022003B0BDE8F083012184F83C10016847
:10097000C90703D1016841F001010160016840F23B
:10098000040821F400610160222184F83D10102147
:1009900084F83E100021216466626785618DC0F293
:1009A00001082185A8F500310439E162E16A026895
:1009B0000A9F42F4806211F5803F026018BF01294E
:1009C00042D1016841F48071016020464FF001116D
:1009D00000223B46009501F01DF858B120680068E0
:1009E000C00544BF4FF400702064012003B0BDE88F
:1009F000F08300BF2069B0F5804F2BD149F0010092
:100A0000C0B221683A460861A8F1020120462B468F
:100A100001F0E6F80028E8D1208D002850D0022807
:100A200066D001286ED121680A6822F480620A60CB
:100A3000002202924A6902928A690292029A0A6824
:100A400042F400720A6078E00829BAD0216B1129BB
:100A5000B7D0BAE7062000EAD916206806F1F001FF
:100A6000016108F1040120463A462B4601F0B8F82E
:100A70000028BAD120685FFA89F10161A8F102016A
:100A800020463A462B4601F0ABF80028ADD10020B5
:100A900002902068002241693B46029181690291DF
:100AA0000299016841F48071016020464FF0011104
:100AB000009500F0AFFF002890D146F0F100A0E7CC
:100AC0000020029020684169029181690291029997
:100AD000016841F400710160202084F83D0000208D
:100AE00084F83E0084F83C0003B0BDE8F08300BF0A
:100AF00021680A6822F480620A600A6842F400628F
:100B000004E000BF21680A6842F480620A600022A3
:100B100002924A6902928969029102990DE000BF2E
:100B200010690870606A218D01306062481E20855E
:100B3000618D013961850104CED080B203280FD8C0
:100B400002284AD001282DD1204639462A4601F0F4
:100B5000B3F800287FF449AF2068616A0069E0E7D4
:100B6000204639462A4601F0A7F800287FF43DAF19
:100B70002068616A00690870606A2268411C208DE3
:100B8000616201382085638D013B638553695B0792
:100B9000D1D580B20328C3D1106820F480601060E2
:100BA000BEE700BF2046414600223B46009500F0CC
:100BB00031FF00287FF419AF2068616A026822F4CF
:100BC0008062026000690870606A218D0130606295
:100BD000481E2085608D01386085204641460022F0
:100BE0003B46009500F016FF00287FF4FEAE20681B
:100BF000616A026842F40072026000690870606A0B
:100C00002268411C6162218D01392185618D013984
:100C100061851169417085E72DE9F04383B01E4677
:100C2000174689460446FFF7B1FD94F83D10202988
:100C300024D10546206800BF816989071AD5FFF7CE
:100C4000A5FD411B20681A29F6D381698907F3D5D0
:100C500000202021206384F83D1084F83E00216CA0
:100C600041F02001216484F83C00022003B0BDE87B
:100C7000F08300BF94F83C10012903D1022003B097
:100C8000BDE8F083012184F83C100168C90703D155
:100C9000016841F001010160016840F2020821F49D
:100CA00000610160212184F83D10102184F83E107C
:100CB0000021216467626685618DC0F2010821858B
:100CC000A8F10211E162E16A0A9E11F5803F18BFA6
:100CD00001291DD1016841F48071016020464FF067
:100CE000011100223346009500F094FE50B12068B7
:100CF0000068C00544BF4FF400702064012003B0B9
:100D0000BDE8F0832069B0F5804F07D1FE2015E0E3
:100D10000829DFD0216B1229DCD0DFE7062000EAAA
:100D2000D9102168F030086108F1060120463246EA
:100D30002B4600F055FF0028E0D1FF20216800EA93
:100D4000090008612046414632462B4600F048FF24
:100D50000028D3D100200290206841690291806967
:100D60000290029806E000BF204631462A4600F075
:100D7000F3FD18BB208D68B3204631462A4600F0AB
:100D8000E3FFD8B9606A2168024612F8013B0B61A3
:100D90006262628D013A6285228D531E23854F69FE
:100DA0007F07E1D51B04DFD0437802300B6160621E
:100DB000608D01386085901E2085D5E7206C042861
:100DC0009CD12068016841F400710160012003B0EA
:100DD000BDE8F0832068016841F4007101602020C3
:100DE00084F83D00002084F83E0084F83C0003B005
:100DF000BDE8F083016845F20040C4F20000814282
:100E000018BF7047B0B586B0002443F63005019492
:100E1000C4F20205296800F5D83041F002012960CA
:100E2000296801F00201019101994FF410710191BB
:100E30001221CDE902140421059101A90494FFF7C0
:100E4000CFFB0094286940F400102861286900F461
:100E500000100090009806B0BDE8B0407047000058
:100E600040F2000040F22821C2F20000C2F200016C
:100E700000780A68104408607047000080B543F6A7
:100E80000040C4F20200016841F400710160016891
:100E900041F480610160016841F4807101600320C8
:100EA00000F088F8002000F005F800F027F8002096
:100EB00080BD000070B540F20006C2F2000640F2AC
:100EC00008013278C2F200014FF47A730968B3FB6B
:100ED000F2F20446B1FBF2F1084600F04FFB0F2C92
:100EE0004FF0010508D838B94FF0FF3021460022F5
:100EF000002500F033F87460284670BD82B00020F1
:100F000043F640010190C4F202014A6842F4804273
:100F10004A604A6802F480420192019A009008688F
:100F200040F080500860086800F080500090009801
:100F3000072002B000F03EB8002848BF704700F01C
:100F40001F01012202FA01F11C2202EAD0004EF236
:100F50000012CEF2000281507047000010B54EF62C
:100F60000C5CCEF2000CDCF80030C3F3022E8EF0E5
:100F70000704042C28BF0424BEF103034FF0FF3EF6
:100F80000EFA04F438BF0023A14399400EFA03F38C
:100F90009A43114300F00F0200F160430901043A43
:100FA00003F564436244002848BF02F10C03197042
:100FB00010BD00004EF60C51CEF200010A684FF64B
:100FC000FF031A4060F30A2242F0806040F0FD7097
:100FD00008607047002804BF012070472DE9F041E8
:100FE00043F60808C4F202080446D8F8F8030D4690
:100FF00000F00700884207D288F8F853D8F8F803C1
:1010000000F00700A84277D12068810717D5410773
:1010100005D5D8F8001041F4E051C8F800100107D8
:1010200005D5D8F8001041F46041C8F80010D8F890
:101030000010A26821F0F0011143C8F80010C007A9
:1010400040D1D8F8F80300F00700A84207D988F883
:10105000F853D8F8F80300F00700A8424CD12068F4
:10106000410707D5D8F80010E26821F4E051114398
:10107000C8F80010000708D5D8F80000216920F44E
:10108000604040EAC100C8F8000000F069F8D8F8F4
:10109000001042F64C22C1F30311C0F60002515C6D
:1010A00040F2080220FA01F140F20400C2F200000E
:1010B0000068C2F200021160FFF7FCFE0020BDE8EC
:1010C000F08100BF6068811E022907D258F8081C11
:1010D00089015CBF0120BDE8F08111E0012807D142
:1010E00058F8081C89035CBF0120BDE8F08107E0C7
:1010F00058F8081C890703D40120BDE8F08100BF1F
:10110000D8F8001021F003010843C8F80000FFF7E9
:101110003DFB064641F28837D8F80000616800F0D0
:101120000C00B0EB810F8CD0FFF730FB801BB84276
:10113000F2D90320BDE8F08140F2080043F608012F
:10114000C2F20000C4F202010068096842F65C22A3
:10115000C1F38221C0F60002515CC8407047000014
:1011600010B543F60404C4F20204606800F00C00F9
:1011700008280BD0042819BF42F20040C0F2F40046
:1011800047F64000C0F27D1010BD00BF2068216806
:101190002368490247F64001C0F27D1100F03F028A
:1011A000C3F388105CBF42F20041C0F2F401A1FB1E
:1011B00000010023FFF76EF821680222C1F301410C
:1011C00002EB4101B0FBF1F010BD0000002804BFAC
:1011D000012070472DE9F04182B00446007843F6C3
:1011E0000006C007C4F202060CD0B06800F00C0084
:1011F000042840F081803068800303D560680028AF
:1012000000F06A81207880071BD5B06810F00C0FC1
:1012100009D0B06800F00C00082840F087807068A2
:10122000400200F183803068800703D5E068012820
:1012300040F052813068216920F0F80040EAC10096
:1012400030602078000713D4207840072AD4A5699D
:10125000002D00F03C81B06800F00C00082840F040
:10126000A180012D40F01081012002B0BDE8F08185
:101270006069002840F20000C4F2472000F07E8040
:101280000121C0F8801EFFF781FA0546706F8007C4
:10129000DAD4FFF77BFA401B0228F7D9032002B00B
:1012A000BDE8F081306C5FEAC0080AD400200190EC
:1012B000306C40F080503064306C00F08050019011
:1012C000019847F20007C4F200073868C00547D408
:1012D000386840F480703860FFF758FA054600BF60
:1012E0003868C0053CD4FFF751FA401B0228F7D9F3
:1012F000032002B0BDE8F081B06800F00C000828BF
:1013000003D1706840023FF576AF6068B0F5803F6A
:1013100007D0B0F5A02F40F09B80306840F48020CB
:101320003060306840F4803030609BE0E068002836
:101330005CD00020C4F2472001210160FFF726FAAB
:10134000054600BF306880073FF574AFFFF71EFA0F
:10135000401B0228F6D9032002B0BDE8F08100BF8F
:10136000A068012805D0052854D1306F40F0040052
:101370003067306F40F00100306755E00021C0F861
:10138000801EFFF703FA0546706F80077FF55CAF9C
:10139000FFF7FCF9401B0228F6D9032002B0BDE894
:1013A000F08100BF0027C4F2472700203866FFF70E
:1013B000EDF9022D05460DD13068800140F1908095
:1013C000FFF7E4F9401B02284FF00300F4D902B004
:1013D000BDE8F0813068800179D5FFF7D7F9401B6F
:1013E00002284FF00300F5D9F1E700BF0020C4F256
:1013F000472000210160FFF7C9F9054630688007E2
:101400007FF51FAFFFF7C2F9401B02284FF0030022
:10141000F4D9DCE7316F002821F001013167316F29
:1014200021F0040131677DD0FFF7B0F9054641F2A4
:10143000883700BF306F800700F18680FFF7A6F97C
:10144000401BB842F6D9032002B0BDE8F08100BFCE
:101450003168002821F480313160316821F4802125
:1014600031607BD0FFF792F9054600BF30688003FA
:101470003FF5C8AEFFF78AF9401B6428F6D9032070
:1014800002B0BDE8F08100BF7068E16900F480023D
:101490008A4221D1216A00F03F028A421CD147F6DC
:1014A000C071626A0140B1EB821F15D1A16A4FF68B
:1014B000FF73C903994300F44032A1F580318A4299
:1014C0000AD1E16A00F07060B0EB016F04D1002036
:1014D00002B0BDE8F08100BF012002B0BDE8F0819C
:1014E00004F11C052FCD084340EA8210D9034FF6C2
:1014F000FF729143A1F5803140EA056008437060B6
:1015000001203866FFF742F9044600BF30688001C9
:10151000DDD4FFF73BF9001B02284FF00300F5D99B
:1015200055E700BFFFF732F9054641F2883700BFA3
:10153000306F800708D5FFF729F9401BB8424FF0FC
:101540000300F5D943E700BFB8F1000F3FF57FAEC8
:10155000306C20F08050306479E600BFFFF716F958
:10156000054600BF306880037FF54CAEFFF70EF9EB
:10157000401B64284FF00300F4D928E7411E0020E7
:10158000B0EB116F1CBF012070474EF21002CEF27B
:10159000000251604EF62351CEF20001F0230B7091
:1015A000072190601160704770470000704700008D
:1015B00090F83C20012A4FF0020254D010B580F878
:1015C0003D200268D2F804E0D2F808C00C682EF082
:1015D0007003234341F2FF74C4F20004A24253603B
:1015E0000EDC40F2FF73C4F200039A4216DCB2F143
:1015F000804F2BD040F20043C4F2000324E000BF30
:1016000040F2FF33C4F201039A4213DC41F60003B7
:10161000C4F200039A4219D0002313E040F60003FD
:10162000C4F200039A4211D040F60043C4F2000312
:101630000AE000BF44F20003C4F201039A4205D05D
:1016400040F20043C4F201039A4204D149682CF0ED
:101650008003194391600121002280F83D1080F839
:101660003C20BDE81040104670470000002804BF31
:101670000120704710B5044690F83D0028B90020BD
:1016800084F83C00204600F01FF8022084F83D005A
:101690002068211D00F0AEFD012084F8460084F88A
:1016A0003E0084F83F0084F8400084F8410084F84C
:1016B000420084F8430084F8440084F8450084F82C
:1016C0003D00002010BD000010B582B0006841F25E
:1016D0000041C4F20001884216D041F20001C4F278
:1016E000000188422CD10020019043F64000C4F252
:1016F00002000168362441F010010160006800F02A
:101700001000019001980FE00020009043F6400087
:10171000C4F202000168372441F020010160006832
:1017200000F0200000900098204600210022FFF7E2
:1017300015FC204602B0BDE81040FFF7FDBB00BF1E
:1017400002B010BD90F83D1001291CBF0120704768
:10175000022180F83D10006841F2FF72C168C4F2B6
:101760000002904241F00101C1600DDC40F2FF71C6
:10177000C4F20001884215DCB0F1804F2AD040F25B
:101780000041C4F2000123E040F2FF31C4F2010144
:10179000884213DC41F60001C4F20001884219D0EE
:1017A000002113E040F60001C4F20001884211D08C
:1017B00040F60041C4F200010AE000BF44F200011B
:1017C000C4F20101884205D040F20041C4F2010197
:1017D000884206D1816801F00701062904BF002074
:1017E0007047016841F0010101600020704700006E
:1017F0007047000070B504460068C5680669B10707
:1018000016D515F0020113D06FF00201016101211C
:1018100021778069800703D02046FFF7E9FF05E0C4
:10182000204600F08FF8204600F08EF80020207748
:10183000700719D515F0040016D020686FF0040168
:10184000016102212177806910F4407F04D0204695
:10185000FFF7CEFF06E000BF204600F073F82046F9
:1018600000F072F800202077300717D515F0080037
:1018700014D020686FF00801016104212177C0694C
:10188000800703D02046FFF7B3FF05E0204600F0B5
:1018900059F8204600F058F800202077F00619D5B6
:1018A00015F0100016D020686FF0100101610821BA
:1018B0002177C06910F4407F04D02046FFF798FFDD
:1018C00006E000BF204600F03DF8204600F03CF85E
:1018D00000202077F00718BF15F0010002D1300674
:1018E00009D412E020686FF001010161204600F088
:1018F0002DF8300609D515F0800006D020686FF06D
:10190000800101612046FFF74FFE700609D515F0F2
:10191000400006D020686FF040010161204600F0D1
:1019200017F8B00658BF70BD15F0200008D0216828
:101930006FF0200220460A61BDE87040FFF736BE16
:1019400070BD000070470000704700007047000045
:1019500070470000FEE7000070B50368044653F8C6
:10196000140F400711D40E46481C29D086BB00BF77
:101970001868400527D4FEF709FF236853F8140FB1
:10198000400737D518684007F2D5002070BD00BF6A
:1019900018684007F9D41868400514D4186840073F
:1019A000F3D4186840050ED418684007EDD41868C1
:1019B000400508D4186840074FF0000048BF70BDCC
:1019C00018684005E4D56FF480601860042012E0C8
:1019D000154603E053F8140F4007D6D418684005A5
:1019E000F1D4FEF7D3FE401B2368B042F2D9586908
:1019F0004007EFD4202000212022216384F83D20DD
:101A000084F83E10226C10432064012084F83C10BE
:101A100070BD00002DE9F041054600681E461446E1
:101A200001F47F0201338FB242D0DDF81880B2F5A5
:101A3000803F40F0878040693840C01BB0FA80F09A
:101A40004009A04240F0C8804EB924E040693840C7
:101A5000C01BB0FA80F04009A04240F0BD80FEF704
:101A600095FEA0EB08012868B142EFD941693940E1
:101A7000C91BB1FA81F14909A142E7D19BE000BF3E
:101A800040693840C01BB0FA80F04009A0424FF0D6
:101A9000000040F0A280FEF779FE286841693940D5
:101AA000C91BB1FA81F14909A142E9D183E000BF24
:101AB000B2F5803F24D100BF41693940C91BB1FA5A
:101AC00081F14909A14240F0878041693940C91B31
:101AD000B1FA81F14909A14240F07E804169394063
:101AE000C91BB1FA81F14909A14275D14169394057
:101AF000C91BB1FA81F14909A142DDD06CE000BFF8
:101B000081693940C91BB1FA81F14909A14263D108
:101B100081693940C91BB1FA81F14909A1425BD100
:101B200081693940C91BB1FA81F14909A14253D1F8
:101B300081693940C91BB1FA81F14909A142DFD05D
:101B40004AE000BF80693840C01BB0FA80F040090D
:101B5000A04241D146B923E080693840C01BB0FAA9
:101B600080F04009A04237D1FEF710FEA0EB08013B
:101B70002868B142F0D981693940C91BB1FA81F1B5
:101B80004909A142E8D116E080693840C01BB0FA8B
:101B900080F04009A0424FF0000018BFBDE8F0817E
:101BA000FEF7F4FD286881693940C91BB1FA81F15B
:101BB0004909A142E8D100202021286385F83D1081
:101BC00085F83E00296C41F02001296485F83C002D
:101BD0000120BDE8F08100BF0020BDE8F0810000D9
:101BE000F0B581B0044600681D4643698FB203EA30
:101BF0000701B94202D1002001B0F0BD416916468B
:101C000001323FD049053FD4CEB100BFFEF7BEFD43
:101C1000411B2068B14203D941693940B94215D10D
:101C200041693940B942E6D041694905EED52BE01A
:101C300041693940B942DED04169490524D4FEF7F3
:101C4000A5FD206841693940B942F1D0202023E048
:101C500041693940B942CED04169490514D441693E
:101C60003940B942C7D0416949050DD4416939406D
:101C7000B942C0D04169490506D441693940B942E9
:101C8000B9D041694905E3D5016841F400710160AB
:101C90006FF480614161042000212022216384F8D7
:101CA0003D2084F83E10226C1043206484F83C10E0
:101CB000012001B0F0BD000070B504460068154673
:101CC00050F8143F5A063DD40E4629B926E000BF0D
:101CD00050F8141F490635D40168C90621D4FEF70F
:101CE00055FD411B2068B142F2D941694906EFD444
:101CF00000202021206384F83D1084F83E00206CF1
:101D000040F0200018E000BFFEF740FD206850F8CA
:101D1000141F4906ECD50168490613D40168C906A9
:101D2000F2D56FF01001016000202021206384F8BB
:101D30003D1084F83E00206C2064002084F83C00B4
:101D4000012070BD002070BD70B50368044653F8D3
:101D5000140F000611D40E46481C29D086BB00BFC4
:101D60001868400527D4FEF711FD236853F8140FB7
:101D7000000637D518680006F2D5002070BD00BFF8
:101D800018680006F9D41868400514D418680006CD
:101D9000F3D4186840050ED418680006EDD418680E
:101DA000400508D4186800064FF0000048BF70BD19
:101DB00018684005E4D56FF480601860042012E0D4
:101DC000154603E053F8140F0006D6D418684005F2
:101DD000F1D4FEF7DBFC401B2368B042F2D958690E
:101DE0000006EFD4202000212022216384F83D202A
:101DF00084F83E10226C10432064012084F83C10CB
:101E000070BD00002DE9F04184B040F27008C2F2CC
:101E10000008044648F26B0008F11C05ADF8040008
:101E2000642701AA2846D02102230097FEF7F4FE7A
:101E30006420FEF7C1FB2078217900F0070040EA1A
:101E400081106B218DF806108DF807000DF1060248
:101E50002846D02102230097FEF7DEFE6420FEF71D
:101E6000ABFBE0781A2100F007008DF808108DF820
:101E7000090002AA2846D02102230097FEF7CCFED3
:101E80006078182606EAC0001B218DF80A108DF82C
:101E90000B000DF10A022846D02102230097FEF71D
:101EA000BBFEA0781C2106EAC0008DF80C108DF84E
:101EB0000D0003AA2846D02102230097FEF7ACFEAE
:101EC00040F21940ADF80E000DF10E022846D02167
:101ED00002230097FEF7A0FEA078032806D96078B9
:101EE00003280BD904B0BDE8F08100BF07A151F869
:101EF0002000C8F8080060780328F3D807A151F83B
:101F00002000C8F80C0004B0BDE8F08100007A3D64
:101F10000000FA3D00007A3E0000FA3E0000FA3B65
:101F200000007A3C0000FA3C00007A3D2DE9F043C5
:101F300085B040F27008054604A8C2F20008461CAD
:101F40003A2008F11C048DF80A004FF00A090DF13F
:101F50000A022046D0210123CDF80090FEF75CFE56
:101F600064272046D021324601230097FEF7C6FCA5
:101F70009DF81100002846D03B208DF8040001AAEE
:101F80002046D0210123CDF80090FEF745FE0DF14B
:101F90000A022046D02106230097FEF7AFFCBDF8C9
:101FA0000A00BDF80C1000BA000C288008BABDF871
:101FB0000E10000C688008BA000CA88043208DF831
:101FC00012000DF112022046D0210123CDF800901D
:101FD000FEF722FE01AA2046D02106230097FEF735
:101FE0008DFCBDF80400BDF8061000BA000CA8F87E
:101FF000000008BABDF80810000CA8F8020008BAE2
:10200000000CA8F8040005B0BDE8F08310B582B05C
:1020100004460DF10200FFF789FFBDF90200BDF98A
:102020000410BDF9062000EE100A40F27000C2F262
:10203000000090ED021A02EE101A03EE102AB8EE1C
:10204000C00AB8EEC22AB8EEC33A21EE000A21EE69
:10205000022A21EE031A84ED000A84ED012A84EDA0
:10206000021A02B010BD000040F27001C2F200017D
:102070000A8802804A8842808988818070470000EF
:1020800040F27001C2F20001B1F90020B1F9023052
:10209000B1F904C000EE102A91ED031A02EE103AD5
:1020A00003EE10CAB8EEC00AB8EEC22AB8EEC33AC0
:1020B00021EE000A21EE022A21EE031A80ED000A29
:1020C00080ED012A80ED021A7047000080B50146BC
:1020D00040F27000C2F200001C305422FEF752F9A8
:1020E00080BD0000FEE70000FEE700007047000032
:1020F00070470000FEF7B4BEB0B592B0002443F6BE
:1021000040000B94CDE90944CDE907440594CDE99D
:102110000344CDE901440094C4F2020001680225A1
:1021200041F080510160006800F0805000900098FC
:1021300047F200000094C4F20000016841F48041BD
:102140000160006800F48040009000980120099030
:1021500010200A900E904FF4A8700F900420109059
:102160000720119006A80695CDE90C54FFF72EF82C
:1021700010B172B6FEE700BF0F20CDE901054FF4A4
:102180008050CDE9040401A802210394FEF722FF48
:1021900010B172B6FEE700BF12B0B0BD4EF6885067
:1021A000CEF20000016841F4700101607047000048
:1021B00040F29810C2F20000FFF71CBB10B540F2CD
:1021C000E004C2F200042046FFF7B0FEA01DFFF7B6
:1021D0004BFF04F10C00FFF719FF04F11800FFF7A3
:1021E0004FFF40F2E010C2F20000BDE81040FFF7E0
:1021F00001BB000010B540F6FF3E0368C4F2000EBC
:1022000040F2004C7045C4F2010C27DCB0F1804F65
:1022100031D040F20042C4F2000290422BD040F68E
:102220000002C4F20002904225D041F6FF72C4F2CF
:102230000002904229DC70453CDCB0F1804F5FD059
:1022400040F20042C4F20002904259D040F600022F
:10225000C4F20002904253D056E000BF40F6004264
:10226000C4F20002904206D0604504D00022C4F2BD
:1022700001029042D9D14A6823F07003134341F61A
:10228000FF72C4F200029042D5DD43F6FF72C4F241
:102290000102904222DC42F20002C4F200029042AB
:1022A0002ED00022C4F20102904229D0604527D0EE
:1022B0002AE000BF40F60042C4F2000290421FD064
:1022C00041F60002C4F20002904219D041F60042E9
:1022D000C4F20002904213D016E000BF44F20002A4
:1022E000C4F2010290420BD044F60002C4F2010293
:1022F000904205D044F20042C4F20102904203D160
:10230000CA6823F44073134323F080024B69D1F869
:1023100000E08C681A430260C46240F48062C0F836
:1023200028E0624504BF0969016301214161016937
:10233000C90708BF10BD016921F00101016110BD8D
:10234000FEE700008CB041F6000BC4F2020BFEF772
:1023500095FD584640210122FEF712FA58464FF4E7
:10236000807101224FF48076FEF70AFA0BF50064C3
:1023700020464FF4007101220494FEF701FAABF5F8
:102380008059484680210122FEF7FAF94FF4FA609D
:10239000FEF712F9FFF7B0FE4FF0000843F63000E9
:1023A000CDF81880C4F202000168002241F010014B
:1023B0000160016801F0100106910699CDF81880BE
:1023C000016841F002010160016801F0020106911B
:1023D0000699CDF81880016841F04001016001685C
:1023E00001F0400106910699CDF81880016841F08E
:1023F00008010160016801F0080106910699CDF815
:102400001880016841F004010160016801F00401D5
:1024100006910699CDF81880016841F0010101602C
:10242000016801F0010106910699CDF81880016854
:1024300041F480710160016801F480710691069990
:10244000CDF81880016841F080010160016801F059
:10245000800106910699CDF81880016841F02001AD
:10246000016000684FF48A5100F020000690069841
:102470005846FEF785F920464FF400710022FEF71A
:102480007FF90BF5806048F2200100220290FEF7F0
:1024900077F9484680210022FEF772F9ABF580609B
:1024A000802100220590FEF76BF94FF69B70069095
:1024B000032009900C2006AF4FF0020A0A90ABF5FA
:1024C00000603946CDE907A80324FEF789F8CDE975
:1024D000066A0B20ABF5A0560A9030463946CDE986
:1024E00008880B25FEF77CF843F62340CDE9060A61
:1024F0000A200A9030463946CDE908840396FEF753
:102500006FF84FF4D040CDE9060A58463946CDE978
:1025100008880A95FEF764F84FF6FB70CDE9060AC5
:1025200003240C25ABF540603946CDF82080099492
:102530000A950190FEF754F84FF49850CDE9060A39
:1025400048463946CDE908840A95CDF80090FEF753
:1025500047F88020CDE9060A30463946CDE908849F
:1025600003240A950C25FEF73BF84FF40040069033
:102570004FF490100790584639464FF49016CDF816
:102580002080FEF72DF84FF48A5006900120CDE907
:10259000070858463946CDF82480FEF721F840F266
:1025A0003F60CDE9060A58463946CDE908840A95C8
:1025B000FEF716F84FF44060CDE9060A07200A90AE
:1025C00048463946CDE90888FEF70AF84FF4E0504E
:1025D000CDE9060A0A20ABF5C05B0A905846394699
:1025E000CDE90888FDF7FCFF0920049CCDE9060A27
:1025F00005200A9020463946CDE90888FDF7F0FF0E
:1026000004200690204639464FF00409CDE90768BA
:10261000FDF7E6FF4FF4007006900126204639468C
:10262000CDE90768CDF82480FDF7DAFF0198CDE900
:10263000069A4FF003090C253946CDF82080CDF8D5
:1026400024900A95FDF7CCFF48F2200006A981E806
:102650004101029E39463046CDF82480FDF7C0FF87
:102660004FF23F00CDE9060A0598CDE90889DDF86B
:10267000009039460A95FDF7B3FF4FF48060CDE92D
:10268000060A0B2520463946CDE908880A95FDF74C
:10269000A7FF4FF40060CDE9060A032009900A2045
:1026A0000A9020463946CDF82080FDF799FF4FF477
:1026B0000050CDE906080120089030463946FDF764
:1026C0008FFF4FF40070CDE9060858463946CDF823
:1026D0002080FDF785FFCC20CDE9060A304639463B
:1026E000CDE908880A95FDF77BFF4FF48070CDE9AE
:1026F000060A58463946CDE90888CDF82880FDF706
:102700006FFF80240125484639460694CDE90758D5
:10271000CDF82480FDF764FF1020CDE9060A0320E0
:1027200009900A200A9030463946CDF82080FDF7FE
:1027300057FF08200A9041F60000C4F20200394613
:1027400006948024CDE907A8CDF82480FDF748FF42
:10275000CDE90645059C394620460125CDE9088886
:10276000FDF73EFF4020CDE9060820463946CDF86A
:102770002080FDF735FF4FF4C06006900326204609
:102780003946CDE90768FDF72BFF0A200A90484635
:102790003946CDE9065ACDE908860325FDF720FF25
:1027A0003E20CDE9060A0B2448463946CDE9088883
:1027B0000A94FDF715FF039E0420CDE90608304674
:1027C0003946CDF82080FDF70BFF8620CDE9060ABB
:1027D00058463946CDE908880A94FDF701FF1024D0
:1027E00006A880E8300158463946FDF7F9FE282052
:1027F000CDE9060A0A200A9058463946CDE90885EF
:10280000FDF7EEFE4FF40060069005984FF490152A
:102810003946CDE90758FDF7E3FE4FF4804A3046CC
:102820003946CDE906A5CDF82080FDF7D9FE40F266
:1028300004100021C2F20000C5F2050180E8120177
:10284000C0E90588C0E90788FDF710FE10B172B62F
:10285000FEE700BF41F6000BC4F2020B40F2441049
:10286000049CABF5E231C2F2000048F2A062C0F273
:10287000010280E80601C0E9038AC0E90588C0E9D1
:102880000788FDF789FF18B172B600BFFEE700BFE9
:1028900040F298100021ABF50232C2F200004FF670
:1028A000FF73CDE90611C0E90021C0E9021381617F
:1028B000FEF7DCFE10B172B6FEE700BF40F29810E2
:1028C000C2F2000006A9FEF773FE18B172B600BF8F
:1028D000FEE700BF40F2E0100021ABF50132C2F28A
:1028E00000004FF6FF73CDE90611C0E90021C0E9F1
:1028F00002138161FEF7BAFE10B172B6FEE700BFA7
:1029000040F2E010C2F2000006A9FEF751FE18B135
:1029100072B600BFFEE700BF40F2E0104EF20418AE
:10292000C2F20000CEF20008FEF70CFF01208DF885
:102930001A00ADF81B0040F244104FF48071C2F24F
:102940000000ADF81810FFF7C1FB06A8FFF75AFA10
:1029500040F2F8064FF4000AC2F200061AE000BF87
:102960005846402100220025FDF70AFF58464FF443
:1029700080710022FDF704FF002720464FF400710C
:102980002A46FDF7FDFE484680213A46FDF7F8FE4F
:10299000C8F800A06420FDF70FFEBFF34F8FBFF310
:1029A0006F8FC8F880A0BFF34F8FBFF36F8F96ED86
:1029B000001A96ED010AB0EEC12AB0EEC03AB4EEAC
:1029C000432AF1EE10FA0FDDB5EE401A58464021C9
:1029D000F1EE10FA24DD0122FDF7D2FE58464FF445
:1029E000807100220025C5E7B4EE423AF1EE10FAFC
:1029F000B6DDB5EE400A00250027584640210022EA
:102A0000F1EE10FAC8BF0125D8BF0127FDF7B8FEC7
:102A100058464FF480710022FDF7B2FEADE700BFCB
:102A200000220025FDF7ACFE58464FF480710122CC
:102A3000A0E7F1EE100A4FF6FF71C0F2C03120EAB4
:102A4000010040F04070E1EE100A70470000000005
:102A5000000000000102030406070809000000004E
:102A600001020304882A0008000000201000000072
:102A7000EC010008982A000810000020200800003F
:102A80000C0200080000000001000000100000001F
:082A90000024F4000000000026
:040000050800018965
:00000001FF
